{
  "_format": "hh-sol-artifact-1",
  "contractName": "ScrollTestNft",
  "sourceName": "contracts/ScrollTestNft.sol",
  "abi": [
    {
      "inputs": [
        {
          "internalType": "string",
          "name": "_baseTokenURI",
          "type": "string"
        }
      ],
      "stateMutability": "nonpayable",
      "type": "constructor"
    },
    {
      "inputs": [
        {
          "internalType": "address",
          "name": "sender",
          "type": "address"
        },
        {
          "internalType": "uint256",
          "name": "tokenId",
          "type": "uint256"
        },
        {
          "internalType": "address",
          "name": "owner",
          "type": "address"
        }
      ],
      "name": "ERC721IncorrectOwner",
      "type": "error"
    },
    {
      "inputs": [
        {
          "internalType": "address",
          "name": "operator",
          "type": "address"
        },
        {
          "internalType": "uint256",
          "name": "tokenId",
          "type": "uint256"
        }
      ],
      "name": "ERC721InsufficientApproval",
      "type": "error"
    },
    {
      "inputs": [
        {
          "internalType": "address",
          "name": "approver",
          "type": "address"
        }
      ],
      "name": "ERC721InvalidApprover",
      "type": "error"
    },
    {
      "inputs": [
        {
          "internalType": "address",
          "name": "operator",
          "type": "address"
        }
      ],
      "name": "ERC721InvalidOperator",
      "type": "error"
    },
    {
      "inputs": [
        {
          "internalType": "address",
          "name": "owner",
          "type": "address"
        }
      ],
      "name": "ERC721InvalidOwner",
      "type": "error"
    },
    {
      "inputs": [
        {
          "internalType": "address",
          "name": "receiver",
          "type": "address"
        }
      ],
      "name": "ERC721InvalidReceiver",
      "type": "error"
    },
    {
      "inputs": [
        {
          "internalType": "address",
          "name": "sender",
          "type": "address"
        }
      ],
      "name": "ERC721InvalidSender",
      "type": "error"
    },
    {
      "inputs": [
        {
          "internalType": "uint256",
          "name": "tokenId",
          "type": "uint256"
        }
      ],
      "name": "ERC721NonexistentToken",
      "type": "error"
    },
    {
      "inputs": [
        {
          "internalType": "address",
          "name": "owner",
          "type": "address"
        }
      ],
      "name": "OwnableInvalidOwner",
      "type": "error"
    },
    {
      "inputs": [
        {
          "internalType": "address",
          "name": "account",
          "type": "address"
        }
      ],
      "name": "OwnableUnauthorizedAccount",
      "type": "error"
    },
    {
      "inputs": [],
      "name": "ReentrancyGuardReentrantCall",
      "type": "error"
    },
    {
      "anonymous": false,
      "inputs": [
        {
          "indexed": true,
          "internalType": "address",
          "name": "owner",
          "type": "address"
        },
        {
          "indexed": true,
          "internalType": "address",
          "name": "approved",
          "type": "address"
        },
        {
          "indexed": true,
          "internalType": "uint256",
          "name": "tokenId",
          "type": "uint256"
        }
      ],
      "name": "Approval",
      "type": "event"
    },
    {
      "anonymous": false,
      "inputs": [
        {
          "indexed": true,
          "internalType": "address",
          "name": "owner",
          "type": "address"
        },
        {
          "indexed": true,
          "internalType": "address",
          "name": "operator",
          "type": "address"
        },
        {
          "indexed": false,
          "internalType": "bool",
          "name": "approved",
          "type": "bool"
        }
      ],
      "name": "ApprovalForAll",
      "type": "event"
    },
    {
      "anonymous": false,
      "inputs": [
        {
          "indexed": false,
          "internalType": "uint256",
          "name": "_fromTokenId",
          "type": "uint256"
        },
        {
          "indexed": false,
          "internalType": "uint256",
          "name": "_toTokenId",
          "type": "uint256"
        }
      ],
      "name": "BatchMetadataUpdate",
      "type": "event"
    },
    {
      "anonymous": false,
      "inputs": [
        {
          "indexed": false,
          "internalType": "uint256",
          "name": "_tokenId",
          "type": "uint256"
        }
      ],
      "name": "MetadataUpdate",
      "type": "event"
    },
    {
      "anonymous": false,
      "inputs": [
        {
          "indexed": true,
          "internalType": "address",
          "name": "previousOwner",
          "type": "address"
        },
        {
          "indexed": true,
          "internalType": "address",
          "name": "newOwner",
          "type": "address"
        }
      ],
      "name": "OwnershipTransferred",
      "type": "event"
    },
    {
      "anonymous": false,
      "inputs": [
        {
          "indexed": true,
          "internalType": "address",
          "name": "from",
          "type": "address"
        },
        {
          "indexed": true,
          "internalType": "address",
          "name": "to",
          "type": "address"
        },
        {
          "indexed": true,
          "internalType": "uint256",
          "name": "tokenId",
          "type": "uint256"
        }
      ],
      "name": "Transfer",
      "type": "event"
    },
    {
      "inputs": [
        {
          "internalType": "address",
          "name": "to",
          "type": "address"
        },
        {
          "internalType": "uint256",
          "name": "tokenId",
          "type": "uint256"
        }
      ],
      "name": "approve",
      "outputs": [],
      "stateMutability": "nonpayable",
      "type": "function"
    },
    {
      "inputs": [
        {
          "internalType": "address",
          "name": "owner",
          "type": "address"
        }
      ],
      "name": "balanceOf",
      "outputs": [
        {
          "internalType": "uint256",
          "name": "",
          "type": "uint256"
        }
      ],
      "stateMutability": "view",
      "type": "function"
    },
    {
      "inputs": [],
      "name": "baseTokenURI",
      "outputs": [
        {
          "internalType": "string",
          "name": "",
          "type": "string"
        }
      ],
      "stateMutability": "view",
      "type": "function"
    },
    {
      "inputs": [
        {
          "internalType": "uint256",
          "name": "tokenId",
          "type": "uint256"
        }
      ],
      "name": "getApproved",
      "outputs": [
        {
          "internalType": "address",
          "name": "",
          "type": "address"
        }
      ],
      "stateMutability": "view",
      "type": "function"
    },
    {
      "inputs": [
        {
          "internalType": "address",
          "name": "owner",
          "type": "address"
        },
        {
          "internalType": "address",
          "name": "operator",
          "type": "address"
        }
      ],
      "name": "isApprovedForAll",
      "outputs": [
        {
          "internalType": "bool",
          "name": "",
          "type": "bool"
        }
      ],
      "stateMutability": "view",
      "type": "function"
    },
    {
      "inputs": [],
      "name": "mint",
      "outputs": [],
      "stateMutability": "payable",
      "type": "function"
    },
    {
      "inputs": [],
      "name": "mintPrice",
      "outputs": [
        {
          "internalType": "uint256",
          "name": "",
          "type": "uint256"
        }
      ],
      "stateMutability": "view",
      "type": "function"
    },
    {
      "inputs": [],
      "name": "name",
      "outputs": [
        {
          "internalType": "string",
          "name": "",
          "type": "string"
        }
      ],
      "stateMutability": "view",
      "type": "function"
    },
    {
      "inputs": [],
      "name": "owner",
      "outputs": [
        {
          "internalType": "address",
          "name": "",
          "type": "address"
        }
      ],
      "stateMutability": "view",
      "type": "function"
    },
    {
      "inputs": [
        {
          "internalType": "uint256",
          "name": "tokenId",
          "type": "uint256"
        }
      ],
      "name": "ownerOf",
      "outputs": [
        {
          "internalType": "address",
          "name": "",
          "type": "address"
        }
      ],
      "stateMutability": "view",
      "type": "function"
    },
    {
      "inputs": [],
      "name": "renounceOwnership",
      "outputs": [],
      "stateMutability": "nonpayable",
      "type": "function"
    },
    {
      "inputs": [
        {
          "internalType": "address",
          "name": "from",
          "type": "address"
        },
        {
          "internalType": "address",
          "name": "to",
          "type": "address"
        },
        {
          "internalType": "uint256",
          "name": "tokenId",
          "type": "uint256"
        }
      ],
      "name": "safeTransferFrom",
      "outputs": [],
      "stateMutability": "nonpayable",
      "type": "function"
    },
    {
      "inputs": [
        {
          "internalType": "address",
          "name": "from",
          "type": "address"
        },
        {
          "internalType": "address",
          "name": "to",
          "type": "address"
        },
        {
          "internalType": "uint256",
          "name": "tokenId",
          "type": "uint256"
        },
        {
          "internalType": "bytes",
          "name": "data",
          "type": "bytes"
        }
      ],
      "name": "safeTransferFrom",
      "outputs": [],
      "stateMutability": "nonpayable",
      "type": "function"
    },
    {
      "inputs": [
        {
          "internalType": "address",
          "name": "operator",
          "type": "address"
        },
        {
          "internalType": "bool",
          "name": "approved",
          "type": "bool"
        }
      ],
      "name": "setApprovalForAll",
      "outputs": [],
      "stateMutability": "nonpayable",
      "type": "function"
    },
    {
      "inputs": [
        {
          "internalType": "bytes4",
          "name": "interfaceId",
          "type": "bytes4"
        }
      ],
      "name": "supportsInterface",
      "outputs": [
        {
          "internalType": "bool",
          "name": "",
          "type": "bool"
        }
      ],
      "stateMutability": "view",
      "type": "function"
    },
    {
      "inputs": [],
      "name": "symbol",
      "outputs": [
        {
          "internalType": "string",
          "name": "",
          "type": "string"
        }
      ],
      "stateMutability": "view",
      "type": "function"
    },
    {
      "inputs": [],
      "name": "tokenCounter",
      "outputs": [
        {
          "internalType": "uint256",
          "name": "",
          "type": "uint256"
        }
      ],
      "stateMutability": "view",
      "type": "function"
    },
    {
      "inputs": [
        {
          "internalType": "uint256",
          "name": "tokenId",
          "type": "uint256"
        }
      ],
      "name": "tokenURI",
      "outputs": [
        {
          "internalType": "string",
          "name": "",
          "type": "string"
        }
      ],
      "stateMutability": "view",
      "type": "function"
    },
    {
      "inputs": [
        {
          "internalType": "address",
          "name": "from",
          "type": "address"
        },
        {
          "internalType": "address",
          "name": "to",
          "type": "address"
        },
        {
          "internalType": "uint256",
          "name": "tokenId",
          "type": "uint256"
        }
      ],
      "name": "transferFrom",
      "outputs": [],
      "stateMutability": "nonpayable",
      "type": "function"
    },
    {
      "inputs": [
        {
          "internalType": "address",
          "name": "newOwner",
          "type": "address"
        }
      ],
      "name": "transferOwnership",
      "outputs": [],
      "stateMutability": "nonpayable",
      "type": "function"
    },
    {
      "inputs": [],
      "name": "withdraw",
      "outputs": [],
      "stateMutability": "nonpayable",
      "type": "function"
    }
  ],
  "bytecode": "0x608060405234801561001057600080fd5b5060405161316e38038061316e833981810160405281019061003291906103b1565b336040518060400160405280600f81526020017f5363726f6c6c2054657374204e667400000000000000000000000000000000008152506040518060400160405280600381526020017f53544e000000000000000000000000000000000000000000000000000000000081525081600090816100ae919061061b565b5080600190816100be919061061b565b505050600073ffffffffffffffffffffffffffffffffffffffff168173ffffffffffffffffffffffffffffffffffffffff16036101335760006040517f1e4fbdf700000000000000000000000000000000000000000000000000000000815260040161012a919061072e565b60405180910390fd5b6101428161017660201b60201c565b506001600881905550600060098190555080600b9081610162919061061b565b50650246139ca800600a8190555050610749565b6000600760009054906101000a900473ffffffffffffffffffffffffffffffffffffffff16905081600760006101000a81548173ffffffffffffffffffffffffffffffffffffffff021916908373ffffffffffffffffffffffffffffffffffffffff1602179055508173ffffffffffffffffffffffffffffffffffffffff168173ffffffffffffffffffffffffffffffffffffffff167f8be0079c531659141344cd1fd0a4f28419497f9722a3daafe3b4186f6b6457e060405160405180910390a35050565b6000604051905090565b600080fd5b600080fd5b600080fd5b600080fd5b6000601f19601f8301169050919050565b7f4e487b7100000000000000000000000000000000000000000000000000000000600052604160045260246000fd5b6102a38261025a565b810181811067ffffffffffffffff821117156102c2576102c161026b565b5b80604052505050565b60006102d561023c565b90506102e1828261029a565b919050565b600067ffffffffffffffff8211156103015761030061026b565b5b61030a8261025a565b9050602081019050919050565b60005b8381101561033557808201518184015260208101905061031a565b60008484015250505050565b600061035461034f846102e6565b6102cb565b9050828152602081018484840111156103705761036f610255565b5b61037b848285610317565b509392505050565b600082601f83011261039857610397610250565b5b81516103a8848260208601610341565b91505092915050565b6000602082840312156103c7576103c6610246565b5b600082015167ffffffffffffffff8111156103e5576103e461024b565b5b6103f184828501610383565b91505092915050565b600081519050919050565b7f4e487b7100000000000000000000000000000000000000000000000000000000600052602260045260246000fd5b6000600282049050600182168061044c57607f821691505b60208210810361045f5761045e610405565b5b50919050565b60008190508160005260206000209050919050565b60006020601f8301049050919050565b600082821b905092915050565b6000600883026104c77fffffffffffffffffffffffffffffffffffffffffffffffffffffffffffffffff8261048a565b6104d1868361048a565b95508019841693508086168417925050509392505050565b6000819050919050565b6000819050919050565b600061051861051361050e846104e9565b6104f3565b6104e9565b9050919050565b6000819050919050565b610532836104fd565b61054661053e8261051f565b848454610497565b825550505050565b600090565b61055b61054e565b610566818484610529565b505050565b5b8181101561058a5761057f600082610553565b60018101905061056c565b5050565b601f8211156105cf576105a081610465565b6105a98461047a565b810160208510156105b8578190505b6105cc6105c48561047a565b83018261056b565b50505b505050565b600082821c905092915050565b60006105f2600019846008026105d4565b1980831691505092915050565b600061060b83836105e1565b9150826002028217905092915050565b610624826103fa565b67ffffffffffffffff81111561063d5761063c61026b565b5b6106478254610434565b61065282828561058e565b600060209050601f8311600181146106855760008415610673578287015190505b61067d85826105ff565b8655506106e5565b601f19841661069386610465565b60005b828110156106bb57848901518255600182019150602085019450602081019050610696565b868310156106d857848901516106d4601f8916826105e1565b8355505b6001600288020188555050505b505050505050565b600073ffffffffffffffffffffffffffffffffffffffff82169050919050565b6000610718826106ed565b9050919050565b6107288161070d565b82525050565b6000602082019050610743600083018461071f565b92915050565b612a16806107586000396000f3fe60806040526004361061012a5760003560e01c806370a08231116100ab578063b88d4fde1161006f578063b88d4fde146103ab578063c87b56dd146103d4578063d082e38114610411578063d547cfb71461043c578063e985e9c514610467578063f2fde38b146104a45761012a565b806370a08231146102d8578063715018a6146103155780638da5cb5b1461032c57806395d89b4114610357578063a22cb465146103825761012a565b806323b872dd116100f257806323b872dd146102075780633ccfd60b1461023057806342842e0e146102475780636352211e146102705780636817c76c146102ad5761012a565b806301ffc9a71461012f57806306fdde031461016c578063081812fc14610197578063095ea7b3146101d45780631249c58b146101fd575b600080fd5b34801561013b57600080fd5b5061015660048036038101906101519190611ddb565b6104cd565b6040516101639190611e23565b60405180910390f35b34801561017857600080fd5b5061018161052e565b60405161018e9190611ece565b60405180910390f35b3480156101a357600080fd5b506101be60048036038101906101b99190611f26565b6105c0565b6040516101cb9190611f94565b60405180910390f35b3480156101e057600080fd5b506101fb60048036038101906101f69190611fdb565b6105dc565b005b6102056105f2565b005b34801561021357600080fd5b5061022e6004803603810190610229919061201b565b610697565b005b34801561023c57600080fd5b50610245610799565b005b34801561025357600080fd5b5061026e6004803603810190610269919061201b565b6107fa565b005b34801561027c57600080fd5b5061029760048036038101906102929190611f26565b61081a565b6040516102a49190611f94565b60405180910390f35b3480156102b957600080fd5b506102c261082c565b6040516102cf919061207d565b60405180910390f35b3480156102e457600080fd5b506102ff60048036038101906102fa9190612098565b610832565b60405161030c919061207d565b60405180910390f35b34801561032157600080fd5b5061032a6108ec565b005b34801561033857600080fd5b50610341610900565b60405161034e9190611f94565b60405180910390f35b34801561036357600080fd5b5061036c61092a565b6040516103799190611ece565b60405180910390f35b34801561038e57600080fd5b506103a960048036038101906103a491906120f1565b6109bc565b005b3480156103b757600080fd5b506103d260048036038101906103cd9190612266565b6109d2565b005b3480156103e057600080fd5b506103fb60048036038101906103f69190611f26565b6109ef565b6040516104089190611ece565b60405180910390f35b34801561041d57600080fd5b50610426610b02565b604051610433919061207d565b60405180910390f35b34801561044857600080fd5b50610451610b08565b60405161045e9190611ece565b60405180910390f35b34801561047357600080fd5b5061048e600480360381019061048991906122e9565b610b96565b60405161049b9190611e23565b60405180910390f35b3480156104b057600080fd5b506104cb60048036038101906104c69190612098565b610c2a565b005b6000634906490660e01b7bffffffffffffffffffffffffffffffffffffffffffffffffffffffff1916827bffffffffffffffffffffffffffffffffffffffffffffffffffffffff19161480610527575061052682610cb0565b5b9050919050565b60606000805461053d90612358565b80601f016020809104026020016040519081016040528092919081815260200182805461056990612358565b80156105b65780601f1061058b576101008083540402835291602001916105b6565b820191906000526020600020905b81548152906001019060200180831161059957829003601f168201915b5050505050905090565b60006105cb82610d92565b506105d582610e1a565b9050919050565b6105ee82826105e9610e57565b610e5f565b5050565b600a54341015610637576040517f08c379a000000000000000000000000000000000000000000000000000000000815260040161062e906123fb565b60405180910390fd5b600060095490506106483382610e71565b61067c81600b61065784610e8f565b60405160200161066892919061253b565b604051602081830303815290604052610f5d565b6009600081548092919061068f90612599565b919050555050565b600073ffffffffffffffffffffffffffffffffffffffff168273ffffffffffffffffffffffffffffffffffffffff16036107095760006040517f64a0ae920000000000000000000000000000000000000000000000000000000081526004016107009190611f94565b60405180910390fd5b600061071d8383610718610e57565b610fb9565b90508373ffffffffffffffffffffffffffffffffffffffff168173ffffffffffffffffffffffffffffffffffffffff1614610793578382826040517f64283d7b00000000000000000000000000000000000000000000000000000000815260040161078a939291906125e1565b60405180910390fd5b50505050565b6107a16111d3565b6107a961125a565b3373ffffffffffffffffffffffffffffffffffffffff166108fc479081150290604051600060405180830381858888f193505050501580156107ef573d6000803e3d6000fd5b506107f86112a0565b565b610815838383604051806020016040528060008152506109d2565b505050565b600061082582610d92565b9050919050565b600a5481565b60008073ffffffffffffffffffffffffffffffffffffffff168273ffffffffffffffffffffffffffffffffffffffff16036108a55760006040517f89c62b6400000000000000000000000000000000000000000000000000000000815260040161089c9190611f94565b60405180910390fd5b600360008373ffffffffffffffffffffffffffffffffffffffff1673ffffffffffffffffffffffffffffffffffffffff168152602001908152602001600020549050919050565b6108f46111d3565b6108fe60006112aa565b565b6000600760009054906101000a900473ffffffffffffffffffffffffffffffffffffffff16905090565b60606001805461093990612358565b80601f016020809104026020016040519081016040528092919081815260200182805461096590612358565b80156109b25780601f10610987576101008083540402835291602001916109b2565b820191906000526020600020905b81548152906001019060200180831161099557829003601f168201915b5050505050905090565b6109ce6109c7610e57565b8383611370565b5050565b6109dd848484610697565b6109e9848484846114df565b50505050565b60606109fa82610d92565b506000600660008481526020019081526020016000208054610a1b90612358565b80601f0160208091040260200160405190810160405280929190818152602001828054610a4790612358565b8015610a945780601f10610a6957610100808354040283529160200191610a94565b820191906000526020600020905b815481529060010190602001808311610a7757829003601f168201915b505050505090506000610aa5611696565b90506000815103610aba578192505050610afd565b600082511115610aef578082604051602001610ad7929190612618565b60405160208183030381529060405292505050610afd565b610af8846116ad565b925050505b919050565b60095481565b600b8054610b1590612358565b80601f0160208091040260200160405190810160405280929190818152602001828054610b4190612358565b8015610b8e5780601f10610b6357610100808354040283529160200191610b8e565b820191906000526020600020905b815481529060010190602001808311610b7157829003601f168201915b505050505081565b6000600560008473ffffffffffffffffffffffffffffffffffffffff1673ffffffffffffffffffffffffffffffffffffffff16815260200190815260200160002060008373ffffffffffffffffffffffffffffffffffffffff1673ffffffffffffffffffffffffffffffffffffffff16815260200190815260200160002060009054906101000a900460ff16905092915050565b610c326111d3565b600073ffffffffffffffffffffffffffffffffffffffff168173ffffffffffffffffffffffffffffffffffffffff1603610ca45760006040517f1e4fbdf7000000000000000000000000000000000000000000000000000000008152600401610c9b9190611f94565b60405180910390fd5b610cad816112aa565b50565b60007f80ac58cd000000000000000000000000000000000000000000000000000000007bffffffffffffffffffffffffffffffffffffffffffffffffffffffff1916827bffffffffffffffffffffffffffffffffffffffffffffffffffffffff19161480610d7b57507f5b5e139f000000000000000000000000000000000000000000000000000000007bffffffffffffffffffffffffffffffffffffffffffffffffffffffff1916827bffffffffffffffffffffffffffffffffffffffffffffffffffffffff1916145b80610d8b5750610d8a82611716565b5b9050919050565b600080610d9e83611780565b9050600073ffffffffffffffffffffffffffffffffffffffff168173ffffffffffffffffffffffffffffffffffffffff1603610e1157826040517f7e273289000000000000000000000000000000000000000000000000000000008152600401610e08919061207d565b60405180910390fd5b80915050919050565b60006004600083815260200190815260200160002060009054906101000a900473ffffffffffffffffffffffffffffffffffffffff169050919050565b600033905090565b610e6c83838360016117bd565b505050565b610e8b828260405180602001604052806000815250611982565b5050565b606060006001610e9e8461199e565b01905060008167ffffffffffffffff811115610ebd57610ebc61213b565b5b6040519080825280601f01601f191660200182016040528015610eef5781602001600182028036833780820191505090505b509050600082602001820190505b600115610f52578080600190039150507f3031323334353637383961626364656600000000000000000000000000000000600a86061a8153600a8581610f4657610f4561263c565b5b04945060008503610efd575b819350505050919050565b80600660008481526020019081526020016000209081610f7d9190612802565b507ff8e1a15aba9398e019f0b49df1a4fde98ee17ae345cb5f6b5e2c27f5033e8ce782604051610fad919061207d565b60405180910390a15050565b600080610fc584611780565b9050600073ffffffffffffffffffffffffffffffffffffffff168373ffffffffffffffffffffffffffffffffffffffff161461100757611006818486611af1565b5b600073ffffffffffffffffffffffffffffffffffffffff168173ffffffffffffffffffffffffffffffffffffffff1614611098576110496000856000806117bd565b6001600360008373ffffffffffffffffffffffffffffffffffffffff1673ffffffffffffffffffffffffffffffffffffffff168152602001908152602001600020600082825403925050819055505b600073ffffffffffffffffffffffffffffffffffffffff168573ffffffffffffffffffffffffffffffffffffffff161461111b576001600360008773ffffffffffffffffffffffffffffffffffffffff1673ffffffffffffffffffffffffffffffffffffffff168152602001908152602001600020600082825401925050819055505b846002600086815260200190815260200160002060006101000a81548173ffffffffffffffffffffffffffffffffffffffff021916908373ffffffffffffffffffffffffffffffffffffffff160217905550838573ffffffffffffffffffffffffffffffffffffffff168273ffffffffffffffffffffffffffffffffffffffff167fddf252ad1be2c89b69c2b068fc378daa952ba7f163c4a11628f55a4df523b3ef60405160405180910390a4809150509392505050565b6111db610e57565b73ffffffffffffffffffffffffffffffffffffffff166111f9610900565b73ffffffffffffffffffffffffffffffffffffffff16146112585761121c610e57565b6040517f118cdaa700000000000000000000000000000000000000000000000000000000815260040161124f9190611f94565b60405180910390fd5b565b600260085403611296576040517f3ee5aeb500000000000000000000000000000000000000000000000000000000815260040160405180910390fd5b6002600881905550565b6001600881905550565b6000600760009054906101000a900473ffffffffffffffffffffffffffffffffffffffff16905081600760006101000a81548173ffffffffffffffffffffffffffffffffffffffff021916908373ffffffffffffffffffffffffffffffffffffffff1602179055508173ffffffffffffffffffffffffffffffffffffffff168173ffffffffffffffffffffffffffffffffffffffff167f8be0079c531659141344cd1fd0a4f28419497f9722a3daafe3b4186f6b6457e060405160405180910390a35050565b600073ffffffffffffffffffffffffffffffffffffffff168273ffffffffffffffffffffffffffffffffffffffff16036113e157816040517f5b08ba180000000000000000000000000000000000000000000000000000000081526004016113d89190611f94565b60405180910390fd5b80600560008573ffffffffffffffffffffffffffffffffffffffff1673ffffffffffffffffffffffffffffffffffffffff16815260200190815260200160002060008473ffffffffffffffffffffffffffffffffffffffff1673ffffffffffffffffffffffffffffffffffffffff16815260200190815260200160002060006101000a81548160ff0219169083151502179055508173ffffffffffffffffffffffffffffffffffffffff168373ffffffffffffffffffffffffffffffffffffffff167f17307eab39ab6107e8899845ad3d59bd9653f200f220920489ca2b5937696c31836040516114d29190611e23565b60405180910390a3505050565b60008373ffffffffffffffffffffffffffffffffffffffff163b1115611690578273ffffffffffffffffffffffffffffffffffffffff1663150b7a02611523610e57565b8685856040518563ffffffff1660e01b81526004016115459493929190612929565b6020604051808303816000875af192505050801561158157506040513d601f19601f8201168201806040525081019061157e919061298a565b60015b611605573d80600081146115b1576040519150601f19603f3d011682016040523d82523d6000602084013e6115b6565b606091505b5060008151036115fd57836040517f64a0ae920000000000000000000000000000000000000000000000000000000081526004016115f49190611f94565b60405180910390fd5b805181602001fd5b63150b7a0260e01b7bffffffffffffffffffffffffffffffffffffffffffffffffffffffff1916817bffffffffffffffffffffffffffffffffffffffffffffffffffffffff19161461168e57836040517f64a0ae920000000000000000000000000000000000000000000000000000000081526004016116859190611f94565b60405180910390fd5b505b50505050565b606060405180602001604052806000815250905090565b60606116b882610d92565b5060006116c3611696565b905060008151116116e3576040518060200160405280600081525061170e565b806116ed84610e8f565b6040516020016116fe929190612618565b6040516020818303038152906040525b915050919050565b60007f01ffc9a7000000000000000000000000000000000000000000000000000000007bffffffffffffffffffffffffffffffffffffffffffffffffffffffff1916827bffffffffffffffffffffffffffffffffffffffffffffffffffffffff1916149050919050565b60006002600083815260200190815260200160002060009054906101000a900473ffffffffffffffffffffffffffffffffffffffff169050919050565b80806117f65750600073ffffffffffffffffffffffffffffffffffffffff168273ffffffffffffffffffffffffffffffffffffffff1614155b1561192a57600061180684610d92565b9050600073ffffffffffffffffffffffffffffffffffffffff168373ffffffffffffffffffffffffffffffffffffffff161415801561187157508273ffffffffffffffffffffffffffffffffffffffff168173ffffffffffffffffffffffffffffffffffffffff1614155b801561188457506118828184610b96565b155b156118c657826040517fa9fbf51f0000000000000000000000000000000000000000000000000000000081526004016118bd9190611f94565b60405180910390fd5b811561192857838573ffffffffffffffffffffffffffffffffffffffff168273ffffffffffffffffffffffffffffffffffffffff167f8c5be1e5ebec7d5bd14f71427d1e84f3dd0314c0f7b2291e5b200ac8c7c3b92560405160405180910390a45b505b836004600085815260200190815260200160002060006101000a81548173ffffffffffffffffffffffffffffffffffffffff021916908373ffffffffffffffffffffffffffffffffffffffff16021790555050505050565b61198c8383611bb5565b61199960008484846114df565b505050565b600080600090507a184f03e93ff9f4daa797ed6e38ed64bf6a1f01000000000000000083106119fc577a184f03e93ff9f4daa797ed6e38ed64bf6a1f01000000000000000083816119f2576119f161263c565b5b0492506040810190505b6d04ee2d6d415b85acef81000000008310611a39576d04ee2d6d415b85acef81000000008381611a2f57611a2e61263c565b5b0492506020810190505b662386f26fc100008310611a6857662386f26fc100008381611a5e57611a5d61263c565b5b0492506010810190505b6305f5e1008310611a91576305f5e1008381611a8757611a8661263c565b5b0492506008810190505b6127108310611ab6576127108381611aac57611aab61263c565b5b0492506004810190505b60648310611ad95760648381611acf57611ace61263c565b5b0492506002810190505b600a8310611ae8576001810190505b80915050919050565b611afc838383611cae565b611bb057600073ffffffffffffffffffffffffffffffffffffffff168373ffffffffffffffffffffffffffffffffffffffff1603611b7157806040517f7e273289000000000000000000000000000000000000000000000000000000008152600401611b68919061207d565b60405180910390fd5b81816040517f177e802f000000000000000000000000000000000000000000000000000000008152600401611ba79291906129b7565b60405180910390fd5b505050565b600073ffffffffffffffffffffffffffffffffffffffff168273ffffffffffffffffffffffffffffffffffffffff1603611c275760006040517f64a0ae92000000000000000000000000000000000000000000000000000000008152600401611c1e9190611f94565b60405180910390fd5b6000611c3583836000610fb9565b9050600073ffffffffffffffffffffffffffffffffffffffff168173ffffffffffffffffffffffffffffffffffffffff1614611ca95760006040517f73c6ac6e000000000000000000000000000000000000000000000000000000008152600401611ca09190611f94565b60405180910390fd5b505050565b60008073ffffffffffffffffffffffffffffffffffffffff168373ffffffffffffffffffffffffffffffffffffffff1614158015611d6657508273ffffffffffffffffffffffffffffffffffffffff168473ffffffffffffffffffffffffffffffffffffffff161480611d275750611d268484610b96565b5b80611d6557508273ffffffffffffffffffffffffffffffffffffffff16611d4d83610e1a565b73ffffffffffffffffffffffffffffffffffffffff16145b5b90509392505050565b6000604051905090565b600080fd5b600080fd5b60007fffffffff0000000000000000000000000000000000000000000000000000000082169050919050565b611db881611d83565b8114611dc357600080fd5b50565b600081359050611dd581611daf565b92915050565b600060208284031215611df157611df0611d79565b5b6000611dff84828501611dc6565b91505092915050565b60008115159050919050565b611e1d81611e08565b82525050565b6000602082019050611e386000830184611e14565b92915050565b600081519050919050565b600082825260208201905092915050565b60005b83811015611e78578082015181840152602081019050611e5d565b60008484015250505050565b6000601f19601f8301169050919050565b6000611ea082611e3e565b611eaa8185611e49565b9350611eba818560208601611e5a565b611ec381611e84565b840191505092915050565b60006020820190508181036000830152611ee88184611e95565b905092915050565b6000819050919050565b611f0381611ef0565b8114611f0e57600080fd5b50565b600081359050611f2081611efa565b92915050565b600060208284031215611f3c57611f3b611d79565b5b6000611f4a84828501611f11565b91505092915050565b600073ffffffffffffffffffffffffffffffffffffffff82169050919050565b6000611f7e82611f53565b9050919050565b611f8e81611f73565b82525050565b6000602082019050611fa96000830184611f85565b92915050565b611fb881611f73565b8114611fc357600080fd5b50565b600081359050611fd581611faf565b92915050565b60008060408385031215611ff257611ff1611d79565b5b600061200085828601611fc6565b925050602061201185828601611f11565b9150509250929050565b60008060006060848603121561203457612033611d79565b5b600061204286828701611fc6565b935050602061205386828701611fc6565b925050604061206486828701611f11565b9150509250925092565b61207781611ef0565b82525050565b6000602082019050612092600083018461206e565b92915050565b6000602082840312156120ae576120ad611d79565b5b60006120bc84828501611fc6565b91505092915050565b6120ce81611e08565b81146120d957600080fd5b50565b6000813590506120eb816120c5565b92915050565b6000806040838503121561210857612107611d79565b5b600061211685828601611fc6565b9250506020612127858286016120dc565b9150509250929050565b600080fd5b600080fd5b7f4e487b7100000000000000000000000000000000000000000000000000000000600052604160045260246000fd5b61217382611e84565b810181811067ffffffffffffffff821117156121925761219161213b565b5b80604052505050565b60006121a5611d6f565b90506121b1828261216a565b919050565b600067ffffffffffffffff8211156121d1576121d061213b565b5b6121da82611e84565b9050602081019050919050565b82818337600083830152505050565b6000612209612204846121b6565b61219b565b90508281526020810184848401111561222557612224612136565b5b6122308482856121e7565b509392505050565b600082601f83011261224d5761224c612131565b5b813561225d8482602086016121f6565b91505092915050565b600080600080608085870312156122805761227f611d79565b5b600061228e87828801611fc6565b945050602061229f87828801611fc6565b93505060406122b087828801611f11565b925050606085013567ffffffffffffffff8111156122d1576122d0611d7e565b5b6122dd87828801612238565b91505092959194509250565b60008060408385031215612300576122ff611d79565b5b600061230e85828601611fc6565b925050602061231f85828601611fc6565b9150509250929050565b7f4e487b7100000000000000000000000000000000000000000000000000000000600052602260045260246000fd5b6000600282049050600182168061237057607f821691505b60208210810361238357612382612329565b5b50919050565b7f496e73756666696369656e742066756e64732073656e7420666f72206d696e7460008201527f696e670000000000000000000000000000000000000000000000000000000000602082015250565b60006123e5602383611e49565b91506123f082612389565b604082019050919050565b60006020820190508181036000830152612414816123d8565b9050919050565b600081905092915050565b60008190508160005260206000209050919050565b6000815461244881612358565b612452818661241b565b9450600182166000811461246d5760018114612482576124b5565b60ff19831686528115158202860193506124b5565b61248b85612426565b60005b838110156124ad5781548189015260018201915060208101905061248e565b838801955050505b50505092915050565b7f2f00000000000000000000000000000000000000000000000000000000000000600082015250565b60006124f460018361241b565b91506124ff826124be565b600182019050919050565b600061251582611e3e565b61251f818561241b565b935061252f818560208601611e5a565b80840191505092915050565b6000612547828561243b565b9150612552826124e7565b915061255e828461250a565b91508190509392505050565b7f4e487b7100000000000000000000000000000000000000000000000000000000600052601160045260246000fd5b60006125a482611ef0565b91507fffffffffffffffffffffffffffffffffffffffffffffffffffffffffffffffff82036125d6576125d561256a565b5b600182019050919050565b60006060820190506125f66000830186611f85565b612603602083018561206e565b6126106040830184611f85565b949350505050565b6000612624828561250a565b9150612630828461250a565b91508190509392505050565b7f4e487b7100000000000000000000000000000000000000000000000000000000600052601260045260246000fd5b60006020601f8301049050919050565b600082821b905092915050565b6000600883026126b87fffffffffffffffffffffffffffffffffffffffffffffffffffffffffffffffff8261267b565b6126c2868361267b565b95508019841693508086168417925050509392505050565b6000819050919050565b60006126ff6126fa6126f584611ef0565b6126da565b611ef0565b9050919050565b6000819050919050565b612719836126e4565b61272d61272582612706565b848454612688565b825550505050565b600090565b612742612735565b61274d818484612710565b505050565b5b818110156127715761276660008261273a565b600181019050612753565b5050565b601f8211156127b65761278781612426565b6127908461266b565b8101602085101561279f578190505b6127b36127ab8561266b565b830182612752565b50505b505050565b600082821c905092915050565b60006127d9600019846008026127bb565b1980831691505092915050565b60006127f283836127c8565b9150826002028217905092915050565b61280b82611e3e565b67ffffffffffffffff8111156128245761282361213b565b5b61282e8254612358565b612839828285612775565b600060209050601f83116001811461286c576000841561285a578287015190505b61286485826127e6565b8655506128cc565b601f19841661287a86612426565b60005b828110156128a25784890151825560018201915060208501945060208101905061287d565b868310156128bf57848901516128bb601f8916826127c8565b8355505b6001600288020188555050505b505050505050565b600081519050919050565b600082825260208201905092915050565b60006128fb826128d4565b61290581856128df565b9350612915818560208601611e5a565b61291e81611e84565b840191505092915050565b600060808201905061293e6000830187611f85565b61294b6020830186611f85565b612958604083018561206e565b818103606083015261296a81846128f0565b905095945050505050565b60008151905061298481611daf565b92915050565b6000602082840312156129a05761299f611d79565b5b60006129ae84828501612975565b91505092915050565b60006040820190506129cc6000830185611f85565b6129d9602083018461206e565b939250505056fea2646970667358221220a56a2cde6c5e62abe70504980c46c52a3736c28ba061cb9c8a479c776cb0bad764736f6c634300081b0033",
  "linkReferences": {},
  "deployedLinkReferences": {}
}